:020000020000FC
:1000000000C00FE50DBF04E00EBF0FEF07BB00E01F
:1000100008BB549A539A09E109B900E000BD5F9BFF
:10002000FECF5CB1513019F426D004D0F8CF5FEF89
:10003000BAD0F5CF49D05F9BFDCF6CB1662392F06B
:10004000623021F425D051E0AED00895633019F428
:100050009ED051E005C0643011F451E001C05FEF63
:10006000A2D0E8CF62FF02C034D0E4CFE4E6F0E0F3
:100070009FD043D0DFCFE4E6F0E00EE9019307EE36
:1000800001930ED0C19820D01FD065EA22D00895E8
:10009000E4E6F0E00CE3019307EE019301D008954C
:1000A0000FEF08BB0AD0E4E6F0E032E0119128E05F
:1000B00042D03A95D9F701D00895B99AC19A25E36B
:1000C00003D02A95E9F70895C09A00000000C0986F
:1000D0000895E0E6F0E01ED025D05230D1F3513043
:1000E00019F44AD008F458E019D0C1985CD05130C6
:1000F00019F4E0E6F0E04FD00895E4E6F0E00AD02D
:1001000011D05230D1F30AD0513009F42AD0C1981D
:100110004AD00895162F28E00ED00895D5DFD4DFF9
:10012000B99A0895B998C19A10E023E00FD0512FE1
:1001300055955295089508B30D7F169510F40260F9
:10014000439508BBC1DF2A95B9F70895BDDF8894B0
:1001500006B3027011F00894439517952A95B1F7EC
:10016000089540E034E0119128E0E5DF3A95D9F7B1
:10017000142F21E0E0DF089540E034E028E0E6DFDE
:1001800011933A95D9F721E0E1DF4695089510E003
:1001900028E0D1DF08952F9324E0519104D02A95CF
:1001A000E1F72F91089590DF5D9BFDCF5CB9089535
:1001B0002F9324E005D051932A95E1F72F910895CC
:0A01C00083DF5F9BFDCF5CB1089563
:00000001FF
